{
  "contractName": "MusiciansManager",
  "abi": [
    {
      "inputs": [],
      "stateMutability": "nonpayable",
      "type": "constructor"
    },
    {
      "anonymous": false,
      "inputs": [
        {
          "indexed": false,
          "internalType": "string",
          "name": "_name",
          "type": "string"
        },
        {
          "indexed": false,
          "internalType": "string",
          "name": "_title",
          "type": "string"
        }
      ],
      "name": "addedTrack",
      "type": "event"
    },
    {
      "anonymous": false,
      "inputs": [
        {
          "indexed": false,
          "internalType": "string",
          "name": "_name",
          "type": "string"
        }
      ],
      "name": "createMusician",
      "type": "event"
    },
    {
      "anonymous": false,
      "inputs": [
        {
          "components": [
            {
              "internalType": "string",
              "name": "_title",
              "type": "string"
            },
            {
              "internalType": "uint256",
              "name": "_duration",
              "type": "uint256"
            }
          ],
          "indexed": false,
          "internalType": "struct MusiciansManager.Track[]",
          "name": "_tracks",
          "type": "tuple[]"
        }
      ],
      "name": "getTheTracks",
      "type": "event"
    },
    {
      "inputs": [
        {
          "internalType": "address",
          "name": "_musicianAdress",
          "type": "address"
        },
        {
          "internalType": "string",
          "name": "_name",
          "type": "string"
        }
      ],
      "name": "addMusician",
      "outputs": [],
      "stateMutability": "nonpayable",
      "type": "function"
    },
    {
      "inputs": [
        {
          "internalType": "address",
          "name": "_musicianAdress",
          "type": "address"
        },
        {
          "internalType": "string",
          "name": "_title",
          "type": "string"
        },
        {
          "internalType": "uint256",
          "name": "_duration",
          "type": "uint256"
        }
      ],
      "name": "addTrack",
      "outputs": [],
      "stateMutability": "nonpayable",
      "type": "function"
    },
    {
      "inputs": [
        {
          "internalType": "address",
          "name": "_musicianAdress",
          "type": "address"
        }
      ],
      "name": "getMusicianTracks",
      "outputs": [],
      "stateMutability": "nonpayable",
      "type": "function"
    }
  ],
  "bytecode": "0x608060405234801561001057600080fd5b5033600160006101000a81548173ffffffffffffffffffffffffffffffffffffffff021916908373ffffffffffffffffffffffffffffffffffffffff160217905550610ea3806100616000396000f3fe608060405234801561001057600080fd5b50600436106100415760003560e01c80635f6c86ea146100465780637b061e3814610062578063b14efb5f1461007e575b600080fd5b610060600480360381019061005b91906106b6565b61009a565b005b61007c60048036038101906100779190610829565b6101a4565b005b610098600480360381019061009391906108bb565b610355565b005b60008060008373ffffffffffffffffffffffffffffffffffffffff1673ffffffffffffffffffffffffffffffffffffffff16815260200190815260200160002060000180546100e890610959565b90501161012a576040517f08c379a0000000000000000000000000000000000000000000000000000000008152600401610121906109e8565b60405180910390fd5b7f1c56b8acd78e4cf62b13bf2065d86aaa91f6e5d4ca142798d8e8d03edc5a4a006000808373ffffffffffffffffffffffffffffffffffffffff1673ffffffffffffffffffffffffffffffffffffffff1681526020019081526020016000206001016040516101999190610bfd565b60405180910390a150565b600160009054906101000a900473ffffffffffffffffffffffffffffffffffffffff1673ffffffffffffffffffffffffffffffffffffffff163373ffffffffffffffffffffffffffffffffffffffff1614610234576040517f08c379a000000000000000000000000000000000000000000000000000000000815260040161022b90610c6b565b60405180910390fd5b60008060008473ffffffffffffffffffffffffffffffffffffffff1673ffffffffffffffffffffffffffffffffffffffff168152602001908152602001600020600001805461028290610959565b9050146102c4576040517f08c379a00000000000000000000000000000000000000000000000000000000081526004016102bb90610cfd565b60405180910390fd5b806000808473ffffffffffffffffffffffffffffffffffffffff1673ffffffffffffffffffffffffffffffffffffffff16815260200190815260200160002060000190805190602001906103199291906105a1565b507fec337dc79eac5868fa4cfa10421600dcfe7adf2252f48b2ec2a9ef0eab1d50ae816040516103499190610d94565b60405180910390a15050565b600160009054906101000a900473ffffffffffffffffffffffffffffffffffffffff1673ffffffffffffffffffffffffffffffffffffffff163373ffffffffffffffffffffffffffffffffffffffff16146103e5576040517f08c379a00000000000000000000000000000000000000000000000000000000081526004016103dc90610c6b565b60405180910390fd5b60008060008573ffffffffffffffffffffffffffffffffffffffff1673ffffffffffffffffffffffffffffffffffffffff168152602001908152602001600020600001805461043390610959565b905011610475576040517f08c379a000000000000000000000000000000000000000000000000000000000815260040161046c906109e8565b60405180910390fd5b600060405180604001604052808481526020018381525090506000808573ffffffffffffffffffffffffffffffffffffffff1673ffffffffffffffffffffffffffffffffffffffff16815260200190815260200160002060010181908060018154018082558091505060019003906000526020600020906002020160009091909190915060008201518160000190805190602001906105159291906105a1565b506020820151816001015550507f9497d1cccff6f2600393dd82a704b3eee17c00cd3ef032946c5444f544c7446b6000808673ffffffffffffffffffffffffffffffffffffffff1673ffffffffffffffffffffffffffffffffffffffff16815260200190815260200160002060000184604051610593929190610e36565b60405180910390a150505050565b8280546105ad90610959565b90600052602060002090601f0160209004810192826105cf5760008555610616565b82601f106105e857805160ff1916838001178555610616565b82800160010185558215610616579182015b828111156106155782518255916020019190600101906105fa565b5b5090506106239190610627565b5090565b5b80821115610640576000816000905550600101610628565b5090565b6000604051905090565b600080fd5b600080fd5b600073ffffffffffffffffffffffffffffffffffffffff82169050919050565b600061068382610658565b9050919050565b61069381610678565b811461069e57600080fd5b50565b6000813590506106b08161068a565b92915050565b6000602082840312156106cc576106cb61064e565b5b60006106da848285016106a1565b91505092915050565b600080fd5b600080fd5b6000601f19601f8301169050919050565b7f4e487b7100000000000000000000000000000000000000000000000000000000600052604160045260246000fd5b610736826106ed565b810181811067ffffffffffffffff82111715610755576107546106fe565b5b80604052505050565b6000610768610644565b9050610774828261072d565b919050565b600067ffffffffffffffff821115610794576107936106fe565b5b61079d826106ed565b9050602081019050919050565b82818337600083830152505050565b60006107cc6107c784610779565b61075e565b9050828152602081018484840111156107e8576107e76106e8565b5b6107f38482856107aa565b509392505050565b600082601f8301126108105761080f6106e3565b5b81356108208482602086016107b9565b91505092915050565b600080604083850312156108405761083f61064e565b5b600061084e858286016106a1565b925050602083013567ffffffffffffffff81111561086f5761086e610653565b5b61087b858286016107fb565b9150509250929050565b6000819050919050565b61089881610885565b81146108a357600080fd5b50565b6000813590506108b58161088f565b92915050565b6000806000606084860312156108d4576108d361064e565b5b60006108e2868287016106a1565b935050602084013567ffffffffffffffff81111561090357610902610653565b5b61090f868287016107fb565b9250506040610920868287016108a6565b9150509250925092565b7f4e487b7100000000000000000000000000000000000000000000000000000000600052602260045260246000fd5b6000600282049050600182168061097157607f821691505b602082108114156109855761098461092a565b5b50919050565b600082825260208201905092915050565b7f54686973206d7573696369616e20646f6573276e742065786973747300000000600082015250565b60006109d2601c8361098b565b91506109dd8261099c565b602082019050919050565b60006020820190508181036000830152610a01816109c5565b9050919050565b600081549050919050565b600082825260208201905092915050565b60008190508160005260206000209050919050565b600082825260208201905092915050565b60008190508160005260206000209050919050565b60008154610a6c81610959565b610a768186610a39565b94506001821660008114610a915760018114610aa357610ad6565b60ff1983168652602086019350610ad6565b610aac85610a4a565b60005b83811015610ace57815481890152600182019150602081019050610aaf565b808801955050505b50505092915050565b60008160001c9050919050565b6000819050919050565b6000610b09610b0483610adf565b610aec565b9050919050565b610b1981610885565b82525050565b60006040830160008084018583036000870152610b3c8382610a5f565b92505060018401549050610b4f81610af6565b610b5c6020870182610b10565b50819250505092915050565b6000610b748383610b1f565b905092915050565b6000600282019050919050565b6000610b9482610a08565b610b9e8185610a13565b935083602082028501610bb085610a24565b8060005b85811015610beb57848403895281610bcc8582610b68565b9450610bd783610b7c565b925060208a01995050600181019050610bb4565b50829750879550505050505092915050565b60006020820190508181036000830152610c178184610b89565b905092915050565b7f4e6f7420746865206f776e656400000000000000000000000000000000000000600082015250565b6000610c55600d8361098b565b9150610c6082610c1f565b602082019050919050565b60006020820190508181036000830152610c8481610c48565b9050919050565b7f54686973206d7573696369616e2068617320616c7265616479206265656e206360008201527f7265617465640000000000000000000000000000000000000000000000000000602082015250565b6000610ce760268361098b565b9150610cf282610c8b565b604082019050919050565b60006020820190508181036000830152610d1681610cda565b9050919050565b600081519050919050565b60005b83811015610d46578082015181840152602081019050610d2b565b83811115610d55576000848401525b50505050565b6000610d6682610d1d565b610d70818561098b565b9350610d80818560208601610d28565b610d89816106ed565b840191505092915050565b60006020820190508181036000830152610dae8184610d5b565b905092915050565b60008154610dc381610959565b610dcd818661098b565b94506001821660008114610de85760018114610dfa57610e2d565b60ff1983168652602086019350610e2d565b610e0385610a4a565b60005b83811015610e2557815481890152600182019150602081019050610e06565b808801955050505b50505092915050565b60006040820190508181036000830152610e508185610db6565b90508181036020830152610e648184610d5b565b9050939250505056fea2646970667358221220caa57326cafe935f901993e1b4b65e49d03337d849741289321f37376aaee7c664736f6c634300080a0033",
  "immutableReferences": {},
  "source": "// SPDX-License-Identifier: MIT\npragma solidity 0.8.10;\n\ncontract MusiciansManager {\n\n  //Events\n  event createMusician(string _name);\n  event addedTrack(string _name, string _title);\n  event getTheTracks(Track[] _tracks );\n  \n  // Reprsente une compilation\n  struct Track{\n    string _title;    //Titre de la musique\n    uint _duration;   //Dure de la musique\n  } \n\n  //Reprsente un musicien\n  struct Musician{\n    string _name;     //Nom du musicien\n    Track[] _tracks;  //Tableau reprsente une compilation de musique\n  }\n\n  mapping (address => Musician) Musicians;  //Link l'adresse  un musicien\n  address owner;    //addresse du propritaire\n\n  constructor (){\n    owner = msg.sender; //Lors du deploiement stock l'addresse de la personne qui deploie le contrat\n  } \n\n  //Modifier controle si la personne est bien celle qui a dployer le contrat\n  modifier onlyOwner(){\n    require(msg.sender == owner, \"Not the owned\");\n    _;\n  }\n  \n  //Ajoute un musicien\n  function addMusician(address _musicianAdress, string memory _name) external onlyOwner{\n    //Check si le musicien existe si non le crer en lui attribuant un nom\n    require(bytes(Musicians[_musicianAdress]._name).length == 0, \"This musician has already been created\");\n    Musicians[_musicianAdress]._name = _name;\n    //Dclencher l'evenement permet de rcuperer la data sur la partie Front end entre autre\n    emit createMusician(_name);\n  }\n\n  //Ajoute une musique au musicien\n  function addTrack(address _musicianAdress, string memory _title, uint _duration) external onlyOwner{\n    //Check si le musicien existe si oui crer une variable de type Structure Track et lui affecte pour valeur\n    //Le titre et la dure pass en paramtre\n    require(bytes(Musicians[_musicianAdress]._name).length > 0, \"This musician does'nt exists\");\n    Track memory thisTrack = Track(_title, _duration);\n    //Envoi dans le tableau Tracks du musicien la structure thisTrack\n    Musicians[_musicianAdress]._tracks.push(thisTrack);\n    //Rcupre le nom du musicien et le titre pour la partie front end\n    emit addedTrack(Musicians[_musicianAdress]._name, _title);\n  }\n\n  //Rcupre les tracks d'un musicien\n  function getMusicianTracks(address _musicianAdress) external {\n    require(bytes(Musicians[_musicianAdress]._name).length > 0, \"This musician does'nt exists\");\n    // Rcupre le tableau reprsentatn la compilation pour le front\n    emit getTheTracks(Musicians[_musicianAdress]._tracks);\n  }\n}\n",
  "sourcePath": "/Users/adamfraga/label_contract/contracts/MusiciansManager.sol",
  "compiler": {
    "name": "solc",
    "version": "0.8.10+commit.fc410830.Emscripten.clang"
  },
  "schemaVersion": "3.4.3",
  "updatedAt": "2021-12-10T00:55:03.545Z",
  "devdoc": {
    "kind": "dev",
    "methods": {},
    "version": 1
  },
  "userdoc": {
    "kind": "user",
    "methods": {},
    "version": 1
  }
}